{
  "contractName": "UploadMusic",
  "abi": [
    {
      "constant": false,
      "inputs": [
        {
          "internalType": "string",
          "name": "_title",
          "type": "string"
        },
        {
          "internalType": "string",
          "name": "_artist",
          "type": "string"
        },
        {
          "internalType": "string",
          "name": "_genre",
          "type": "string"
        },
        {
          "internalType": "string",
          "name": "_publishDate",
          "type": "string"
        },
        {
          "internalType": "string",
          "name": "_musicURL",
          "type": "string"
        },
        {
          "internalType": "string",
          "name": "_albumArt",
          "type": "string"
        }
      ],
      "name": "uploadMusic",
      "outputs": [],
      "payable": false,
      "stateMutability": "nonpayable",
      "type": "function"
    },
    {
      "constant": true,
      "inputs": [
        {
          "internalType": "address",
          "name": "_owner",
          "type": "address"
        }
      ],
      "name": "getMusicByOwner",
      "outputs": [
        {
          "internalType": "uint256[]",
          "name": "",
          "type": "uint256[]"
        }
      ],
      "payable": false,
      "stateMutability": "view",
      "type": "function"
    },
    {
      "constant": true,
      "inputs": [],
      "name": "getLength",
      "outputs": [
        {
          "internalType": "uint256",
          "name": "",
          "type": "uint256"
        }
      ],
      "payable": false,
      "stateMutability": "view",
      "type": "function"
    },
    {
      "constant": true,
      "inputs": [
        {
          "internalType": "uint256",
          "name": "_id",
          "type": "uint256"
        }
      ],
      "name": "getTitle",
      "outputs": [
        {
          "internalType": "string",
          "name": "",
          "type": "string"
        }
      ],
      "payable": false,
      "stateMutability": "view",
      "type": "function"
    },
    {
      "constant": true,
      "inputs": [
        {
          "internalType": "uint256",
          "name": "_id",
          "type": "uint256"
        }
      ],
      "name": "getArtist",
      "outputs": [
        {
          "internalType": "string",
          "name": "",
          "type": "string"
        }
      ],
      "payable": false,
      "stateMutability": "view",
      "type": "function"
    },
    {
      "constant": true,
      "inputs": [
        {
          "internalType": "uint256",
          "name": "_id",
          "type": "uint256"
        }
      ],
      "name": "getGenre",
      "outputs": [
        {
          "internalType": "string",
          "name": "",
          "type": "string"
        }
      ],
      "payable": false,
      "stateMutability": "view",
      "type": "function"
    },
    {
      "constant": true,
      "inputs": [
        {
          "internalType": "uint256",
          "name": "_id",
          "type": "uint256"
        }
      ],
      "name": "getPublishDate",
      "outputs": [
        {
          "internalType": "string",
          "name": "",
          "type": "string"
        }
      ],
      "payable": false,
      "stateMutability": "view",
      "type": "function"
    },
    {
      "constant": true,
      "inputs": [
        {
          "internalType": "uint256",
          "name": "_id",
          "type": "uint256"
        }
      ],
      "name": "getMusicURL",
      "outputs": [
        {
          "internalType": "string",
          "name": "",
          "type": "string"
        }
      ],
      "payable": false,
      "stateMutability": "view",
      "type": "function"
    },
    {
      "constant": true,
      "inputs": [
        {
          "internalType": "uint256",
          "name": "_id",
          "type": "uint256"
        }
      ],
      "name": "getAlbumArt",
      "outputs": [
        {
          "internalType": "string",
          "name": "",
          "type": "string"
        }
      ],
      "payable": false,
      "stateMutability": "view",
      "type": "function"
    },
    {
      "constant": false,
      "inputs": [
        {
          "internalType": "uint256",
          "name": "_id",
          "type": "uint256"
        },
        {
          "internalType": "string",
          "name": "_newTitle",
          "type": "string"
        }
      ],
      "name": "changeTitle",
      "outputs": [],
      "payable": false,
      "stateMutability": "nonpayable",
      "type": "function"
    },
    {
      "constant": false,
      "inputs": [
        {
          "internalType": "uint256",
          "name": "_id",
          "type": "uint256"
        },
        {
          "internalType": "string",
          "name": "_newAlbumArt",
          "type": "string"
        }
      ],
      "name": "changeAlbumArt",
      "outputs": [],
      "payable": false,
      "stateMutability": "nonpayable",
      "type": "function"
    },
    {
      "constant": false,
      "inputs": [
        {
          "internalType": "uint256",
          "name": "_id",
          "type": "uint256"
        }
      ],
      "name": "thumbsUp",
      "outputs": [],
      "payable": false,
      "stateMutability": "nonpayable",
      "type": "function"
    },
    {
      "constant": true,
      "inputs": [
        {
          "internalType": "uint256",
          "name": "_id",
          "type": "uint256"
        }
      ],
      "name": "totalLike",
      "outputs": [
        {
          "internalType": "uint256",
          "name": "",
          "type": "uint256"
        }
      ],
      "payable": false,
      "stateMutability": "view",
      "type": "function"
    }
  ],
  "bytecode": "0x608060405234801561001057600080fd5b506114c2806100206000396000f3fe608060405234801561001057600080fd5b50600436106100cf5760003560e01c8063811dd0e21161008c578063be1c766b11610066578063be1c766b1461096f578063c5587a711461098d578063e1d0517e14610a34578063e52bb74214610a76576100cf565b8063811dd0e21461075c5780638ac8586914610803578063929a79b1146108c8576100cf565b80630b156d8c146100d45780630db2179f1461017b5780632c01c1fc14610222578063497590f3146102e757806351a15149146103805780637d9dfed41461072e575b600080fd5b610100600480360360208110156100ea57600080fd5b8101908080359060200190929190505050610b1d565b6040518080602001828103825283818151815260200191508051906020019080838360005b83811015610140578082015181840152602081019050610125565b50505050905090810190601f16801561016d5780820380516001836020036101000a031916815260200191505b509250505060405180910390f35b6101a76004803603602081101561019157600080fd5b8101908080359060200190929190505050610bdd565b6040518080602001828103825283818151815260200191508051906020019080838360005b838110156101e75780820151818401526020810190506101cc565b50505050905090810190601f1680156102145780820380516001836020036101000a031916815260200191505b509250505060405180910390f35b6102e56004803603604081101561023857600080fd5b81019080803590602001909291908035906020019064010000000081111561025f57600080fd5b82018360208201111561027157600080fd5b8035906020019184600183028401116401000000008311171561029357600080fd5b91908080601f016020809104026020016040519081016040528093929190818152602001838380828437600081840152601f19601f820116905080830192505050505050509192919290505050610c9d565b005b610329600480360360208110156102fd57600080fd5b81019080803573ffffffffffffffffffffffffffffffffffffffff169060200190929190505050610cd4565b6040518080602001828103825283818151815260200191508051906020019060200280838360005b8381101561036c578082015181840152602081019050610351565b505050509050019250505060405180910390f35b61072c600480360360c081101561039657600080fd5b81019080803590602001906401000000008111156103b357600080fd5b8201836020820111156103c557600080fd5b803590602001918460018302840111640100000000831117156103e757600080fd5b91908080601f016020809104026020016040519081016040528093929190818152602001838380828437600081840152601f19601f8201169050808301925050505050505091929192908035906020019064010000000081111561044a57600080fd5b82018360208201111561045c57600080fd5b8035906020019184600183028401116401000000008311171561047e57600080fd5b91908080601f016020809104026020016040519081016040528093929190818152602001838380828437600081840152601f19601f820116905080830192505050505050509192919290803590602001906401000000008111156104e157600080fd5b8201836020820111156104f357600080fd5b8035906020019184600183028401116401000000008311171561051557600080fd5b91908080601f016020809104026020016040519081016040528093929190818152602001838380828437600081840152601f19601f8201169050808301925050505050505091929192908035906020019064010000000081111561057857600080fd5b82018360208201111561058a57600080fd5b803590602001918460018302840111640100000000831117156105ac57600080fd5b91908080601f016020809104026020016040519081016040528093929190818152602001838380828437600081840152601f19601f8201169050808301925050505050505091929192908035906020019064010000000081111561060f57600080fd5b82018360208201111561062157600080fd5b8035906020019184600183028401116401000000008311171561064357600080fd5b91908080601f016020809104026020016040519081016040528093929190818152602001838380828437600081840152601f19601f820116905080830192505050505050509192919290803590602001906401000000008111156106a657600080fd5b8201836020820111156106b857600080fd5b803590602001918460018302840111640100000000831117156106da57600080fd5b91908080601f016020809104026020016040519081016040528093929190818152602001838380828437600081840152601f19601f820116905080830192505050505050509192919290505050610e00565b005b61075a6004803603602081101561074457600080fd5b8101908080359060200190929190505050610fcb565b005b6107886004803603602081101561077257600080fd5b8101908080359060200190929190505050610ffc565b6040518080602001828103825283818151815260200191508051906020019080838360005b838110156107c85780820151818401526020810190506107ad565b50505050905090810190601f1680156107f55780820380516001836020036101000a031916815260200191505b509250505060405180910390f35b6108c66004803603604081101561081957600080fd5b81019080803590602001909291908035906020019064010000000081111561084057600080fd5b82018360208201111561085257600080fd5b8035906020019184600183028401116401000000008311171561087457600080fd5b91908080601f016020809104026020016040519081016040528093929190818152602001838380828437600081840152601f19601f8201169050808301925050505050505091929192905050506110bc565b005b6108f4600480360360208110156108de57600080fd5b81019080803590602001909291905050506110f3565b6040518080602001828103825283818151815260200191508051906020019080838360005b83811015610934578082015181840152602081019050610919565b50505050905090810190601f1680156109615780820380516001836020036101000a031916815260200191505b509250505060405180910390f35b6109776111b3565b6040518082815260200191505060405180910390f35b6109b9600480360360208110156109a357600080fd5b81019080803590602001909291905050506111c0565b6040518080602001828103825283818151815260200191508051906020019080838360005b838110156109f95780820151818401526020810190506109de565b50505050905090810190601f168015610a265780820380516001836020036101000a031916815260200191505b509250505060405180910390f35b610a6060048036036020811015610a4a57600080fd5b8101908080359060200190929190505050611280565b6040518082815260200191505060405180910390f35b610aa260048036036020811015610a8c57600080fd5b81019080803590602001909291905050506112a8565b6040518080602001828103825283818151815260200191508051906020019080838360005b83811015610ae2578082015181840152602081019050610ac7565b50505050905090810190601f168015610b0f5780820380516001836020036101000a031916815260200191505b509250505060405180910390f35b606060028281548110610b2c57fe5b90600052602060002090600702016003018054600181600116156101000203166002900480601f016020809104026020016040519081016040528092919081815260200182805460018160011615610100020316600290048015610bd15780601f10610ba657610100808354040283529160200191610bd1565b820191906000526020600020905b815481529060010190602001808311610bb457829003601f168201915b50505050509050919050565b606060028281548110610bec57fe5b90600052602060002090600702016004018054600181600116156101000203166002900480601f016020809104026020016040519081016040528092919081815260200182805460018160011615610100020316600290048015610c915780601f10610c6657610100808354040283529160200191610c91565b820191906000526020600020905b815481529060010190602001808311610c7457829003601f168201915b50505050509050919050565b8060028381548110610cab57fe5b90600052602060002090600702016005019080519060200190610ccf929190611368565b505050565b606080600160008473ffffffffffffffffffffffffffffffffffffffff1673ffffffffffffffffffffffffffffffffffffffff16815260200190815260200160002054604051908082528060200260200182016040528015610d455781602001602082028038833980820191505090505b509050600080905060008090505b600280549050811015610df5578473ffffffffffffffffffffffffffffffffffffffff1660008083815260200190815260200160002060009054906101000a900473ffffffffffffffffffffffffffffffffffffffff1673ffffffffffffffffffffffffffffffffffffffff161415610de85780838381518110610dd357fe5b60200260200101818152505081806001019250505b8080600101915050610d53565b508192505050919050565b6000600160026040518060e001604052808a81526020018981526020018881526020018781526020018681526020018581526020016000815250908060018154018082558091505090600182039060005260206000209060070201600090919290919091506000820151816000019080519060200190610e819291906113e8565b506020820151816001019080519060200190610e9e9291906113e8565b506040820151816002019080519060200190610ebb9291906113e8565b506060820151816003019080519060200190610ed89291906113e8565b506080820151816004019080519060200190610ef59291906113e8565b5060a0820151816005019080519060200190610f129291906113e8565b5060c0820151816006015550500390503360008083815260200190815260200160002060006101000a81548173ffffffffffffffffffffffffffffffffffffffff021916908373ffffffffffffffffffffffffffffffffffffffff160217905550600160003373ffffffffffffffffffffffffffffffffffffffff1673ffffffffffffffffffffffffffffffffffffffff1681526020019081526020016000206000815480929190600101919050555050505050505050565b60028181548110610fd857fe5b90600052602060002090600702016006016000815480929190600101919050555050565b60606002828154811061100b57fe5b90600052602060002090600702016001018054600181600116156101000203166002900480601f0160208091040260200160405190810160405280929190818152602001828054600181600116156101000203166002900480156110b05780601f10611085576101008083540402835291602001916110b0565b820191906000526020600020905b81548152906001019060200180831161109357829003601f168201915b50505050509050919050565b80600283815481106110ca57fe5b906000526020600020906007020160000190805190602001906110ee929190611368565b505050565b60606002828154811061110257fe5b90600052602060002090600702016000018054600181600116156101000203166002900480601f0160208091040260200160405190810160405280929190818152602001828054600181600116156101000203166002900480156111a75780601f1061117c576101008083540402835291602001916111a7565b820191906000526020600020905b81548152906001019060200180831161118a57829003601f168201915b50505050509050919050565b6000600280549050905090565b6060600282815481106111cf57fe5b90600052602060002090600702016005018054600181600116156101000203166002900480601f0160208091040260200160405190810160405280929190818152602001828054600181600116156101000203166002900480156112745780601f1061124957610100808354040283529160200191611274565b820191906000526020600020905b81548152906001019060200180831161125757829003601f168201915b50505050509050919050565b60006002828154811061128f57fe5b9060005260206000209060070201600601549050919050565b6060600282815481106112b757fe5b90600052602060002090600702016002018054600181600116156101000203166002900480601f01602080910402602001604051908101604052809291908181526020018280546001816001161561010002031660029004801561135c5780601f106113315761010080835404028352916020019161135c565b820191906000526020600020905b81548152906001019060200180831161133f57829003601f168201915b50505050509050919050565b828054600181600116156101000203166002900490600052602060002090601f016020900481019282601f106113a957805160ff19168380011785556113d7565b828001600101855582156113d7579182015b828111156113d65782518255916020019190600101906113bb565b5b5090506113e49190611468565b5090565b828054600181600116156101000203166002900490600052602060002090601f016020900481019282601f1061142957805160ff1916838001178555611457565b82800160010185558215611457579182015b8281111561145657825182559160200191906001019061143b565b5b5090506114649190611468565b5090565b61148a91905b8082111561148657600081600090555060010161146e565b5090565b9056fea265627a7a72315820efb4e220bebb1e7259b837f965d3d4c1bee762186a50c828cce95cad6e60f28a64736f6c63430005100032",
  "source": "pragma solidity >=0.4.25 <0.7.0;\n\ncontract UploadMusic {\n\n\tstruct Music{\n\t\tstring title;\n\t\tstring artist;\n\t\tstring genre;\n\t\tstring publishDate;\n\t\tstring musicURL;\n\t\tstring albumArt;\n\t\tuint like;\n\t}\n\n\tmapping (uint => address) idToOwner;\n\tmapping (address => uint) musicCount;\n\tMusic[] musicArray;\n\n\n\tfunction uploadMusic(string memory _title, string memory _artist, string memory _genre, string memory _publishDate, string memory _musicURL, string memory _albumArt) public {\n    uint id = musicArray.push(Music(_title, _artist, _genre, _publishDate, _musicURL, _albumArt, 0)) - 1;\n\t\tidToOwner[id] = msg.sender;\n    musicCount[msg.sender]++;\n\t}\n\n\tfunction getMusicByOwner(address _owner) external view returns(uint[] memory) {\n\t\tuint[] memory result = new uint[](musicCount[_owner]);\n\t\tuint counter = 0;\n\t\tfor (uint i = 0; i < musicArray.length; i++) {\n\t\t\tif (idToOwner[i] == _owner) {\n\t\t\t\tresult[counter] = i;\n\t\t\t\tcounter++;\n\t\t\t}\n\t\t}\n\t\treturn result;\n\t}\n\t//mapping\n\t// function musicOwner(uint _id) public view uint _id)uint _id)returns(address) {\n\t// \treturn idToOwner[_id];\n\t// }\n\t// function musicCount(address _address) public view returns(uint) {\n\t// \treturn musicCount[_address];\n\t// }\n\n\t//get\n\tfunction getLength() public view returns(uint) {\n\t\treturn musicArray.length;\n\t}\n\tfunction getTitle(uint _id) public view returns(string memory) {\n\t\treturn musicArray[_id].title;\n\t}\n\tfunction getArtist(uint _id) public view returns(string memory) {\n\t\treturn musicArray[_id].artist;\n\t}\n\tfunction getGenre(uint _id) public view returns(string memory) {\n\t\treturn musicArray[_id].genre;\n\t}\n\tfunction getPublishDate(uint _id) public view returns(string memory) {\n\t\treturn musicArray[_id].publishDate;\n\t}\n\tfunction getMusicURL(uint _id) public view returns(string memory) {\n\t\treturn musicArray[_id].musicURL;\n\t}\n\tfunction getAlbumArt(uint _id) public view returns(string memory) {\n\t\treturn musicArray[_id].albumArt;\n\t}\n\t//change\n\tfunction changeTitle (uint _id, string memory _newTitle) public {\n\t\tmusicArray[_id].title = _newTitle;\n\t}\n\tfunction changeAlbumArt (uint _id, string memory _newAlbumArt) public {\n\t\tmusicArray[_id].albumArt = _newAlbumArt;\n\t}\n\t//function changeDescription (uint _id, string memory _newDescription) public {\n\t//\tmusicArray[_id].description = _newDescription;\n\t//}\n\t//like\n\tfunction thumbsUp (uint _id) public {\n\t\tmusicArray[_id].like ++;\n\t}\n\tfunction totalLike(uint _id) public view returns(uint) {\n\t\treturn musicArray[_id].like;\n\t}\n}\n",
  "sourcePath": "/home/vic/Documents/Whisper4/Whisper/contracts/UploadMusic.sol",
  "compiler": {
    "name": "solc",
    "version": "0.5.16+commit.9c3226ce.Emscripten.clang"
  },
  "schemaVersion": "3.2.0",
  "updatedAt": "2020-06-24T14:54:50.745Z",
  "networkType": "ethereum",
  "devdoc": {
    "methods": {}
  },
  "userdoc": {
    "methods": {}
  }
}