{
  "contractName": "UploadMusic",
  "abi": [
    {
      "constant": false,
      "inputs": [
        {
          "internalType": "string",
          "name": "_title",
          "type": "string"
        },
        {
          "internalType": "string",
          "name": "_artist",
          "type": "string"
        },
        {
          "internalType": "string",
          "name": "_genre",
          "type": "string"
        },
        {
          "internalType": "string",
          "name": "_publishDate",
          "type": "string"
        },
        {
          "internalType": "string",
          "name": "_musicURL",
          "type": "string"
        },
        {
          "internalType": "string",
          "name": "_albumArt",
          "type": "string"
        }
      ],
      "name": "uploadMusic",
      "outputs": [],
      "payable": false,
      "stateMutability": "nonpayable",
      "type": "function"
    },
    {
      "constant": true,
      "inputs": [
        {
          "internalType": "address",
          "name": "_owner",
          "type": "address"
        }
      ],
      "name": "getMusicByOwner",
      "outputs": [
        {
          "internalType": "uint256[]",
          "name": "",
          "type": "uint256[]"
        }
      ],
      "payable": false,
      "stateMutability": "view",
      "type": "function"
    },
    {
      "constant": true,
      "inputs": [
        {
          "internalType": "uint256",
          "name": "_id",
          "type": "uint256"
        }
      ],
      "name": "getTitle",
      "outputs": [
        {
          "internalType": "string",
          "name": "",
          "type": "string"
        }
      ],
      "payable": false,
      "stateMutability": "view",
      "type": "function"
    },
    {
      "constant": true,
      "inputs": [
        {
          "internalType": "uint256",
          "name": "_id",
          "type": "uint256"
        }
      ],
      "name": "getArtist",
      "outputs": [
        {
          "internalType": "string",
          "name": "",
          "type": "string"
        }
      ],
      "payable": false,
      "stateMutability": "view",
      "type": "function"
    },
    {
      "constant": true,
      "inputs": [
        {
          "internalType": "uint256",
          "name": "_id",
          "type": "uint256"
        }
      ],
      "name": "getGenre",
      "outputs": [
        {
          "internalType": "string",
          "name": "",
          "type": "string"
        }
      ],
      "payable": false,
      "stateMutability": "view",
      "type": "function"
    },
    {
      "constant": true,
      "inputs": [
        {
          "internalType": "uint256",
          "name": "_id",
          "type": "uint256"
        }
      ],
      "name": "getPublishDate",
      "outputs": [
        {
          "internalType": "string",
          "name": "",
          "type": "string"
        }
      ],
      "payable": false,
      "stateMutability": "view",
      "type": "function"
    },
    {
      "constant": true,
      "inputs": [
        {
          "internalType": "uint256",
          "name": "_id",
          "type": "uint256"
        }
      ],
      "name": "getMusicURL",
      "outputs": [
        {
          "internalType": "string",
          "name": "",
          "type": "string"
        }
      ],
      "payable": false,
      "stateMutability": "view",
      "type": "function"
    },
    {
      "constant": true,
      "inputs": [
        {
          "internalType": "uint256",
          "name": "_id",
          "type": "uint256"
        }
      ],
      "name": "getAlbumArt",
      "outputs": [
        {
          "internalType": "string",
          "name": "",
          "type": "string"
        }
      ],
      "payable": false,
      "stateMutability": "view",
      "type": "function"
    },
    {
      "constant": false,
      "inputs": [
        {
          "internalType": "uint256",
          "name": "_id",
          "type": "uint256"
        },
        {
          "internalType": "string",
          "name": "_newTitle",
          "type": "string"
        }
      ],
      "name": "changeTitle",
      "outputs": [],
      "payable": false,
      "stateMutability": "nonpayable",
      "type": "function"
    },
    {
      "constant": false,
      "inputs": [
        {
          "internalType": "uint256",
          "name": "_id",
          "type": "uint256"
        },
        {
          "internalType": "string",
          "name": "_newAlbumArt",
          "type": "string"
        }
      ],
      "name": "changeAlbumArt",
      "outputs": [],
      "payable": false,
      "stateMutability": "nonpayable",
      "type": "function"
    },
    {
      "constant": false,
      "inputs": [
        {
          "internalType": "uint256",
          "name": "_id",
          "type": "uint256"
        }
      ],
      "name": "thumbsUp",
      "outputs": [],
      "payable": false,
      "stateMutability": "nonpayable",
      "type": "function"
    },
    {
      "constant": true,
      "inputs": [
        {
          "internalType": "uint256",
          "name": "_id",
          "type": "uint256"
        }
      ],
      "name": "totalLike",
      "outputs": [
        {
          "internalType": "uint256",
          "name": "",
          "type": "uint256"
        }
      ],
      "payable": false,
      "stateMutability": "view",
      "type": "function"
    }
  ],
  "bytecode": "0x608060405234801561001057600080fd5b5061147c806100206000396000f3fe608060405234801561001057600080fd5b50600436106100b45760003560e01c8063811dd0e211610071578063811dd0e2146107415780638ac85869146107e8578063929a79b1146108ad578063c5587a7114610954578063e1d0517e146109fb578063e52bb74214610a3d576100b4565b80630b156d8c146100b95780630db2179f146101605780632c01c1fc14610207578063497590f3146102cc57806351a15149146103655780637d9dfed414610713575b600080fd5b6100e5600480360360208110156100cf57600080fd5b8101908080359060200190929190505050610ae4565b6040518080602001828103825283818151815260200191508051906020019080838360005b8381101561012557808201518184015260208101905061010a565b50505050905090810190601f1680156101525780820380516001836020036101000a031916815260200191505b509250505060405180910390f35b61018c6004803603602081101561017657600080fd5b8101908080359060200190929190505050610ba4565b6040518080602001828103825283818151815260200191508051906020019080838360005b838110156101cc5780820151818401526020810190506101b1565b50505050905090810190601f1680156101f95780820380516001836020036101000a031916815260200191505b509250505060405180910390f35b6102ca6004803603604081101561021d57600080fd5b81019080803590602001909291908035906020019064010000000081111561024457600080fd5b82018360208201111561025657600080fd5b8035906020019184600183028401116401000000008311171561027857600080fd5b91908080601f016020809104026020016040519081016040528093929190818152602001838380828437600081840152601f19601f820116905080830192505050505050509192919290505050610c64565b005b61030e600480360360208110156102e257600080fd5b81019080803573ffffffffffffffffffffffffffffffffffffffff169060200190929190505050610c9b565b6040518080602001828103825283818151815260200191508051906020019060200280838360005b83811015610351578082015181840152602081019050610336565b505050509050019250505060405180910390f35b610711600480360360c081101561037b57600080fd5b810190808035906020019064010000000081111561039857600080fd5b8201836020820111156103aa57600080fd5b803590602001918460018302840111640100000000831117156103cc57600080fd5b91908080601f016020809104026020016040519081016040528093929190818152602001838380828437600081840152601f19601f8201169050808301925050505050505091929192908035906020019064010000000081111561042f57600080fd5b82018360208201111561044157600080fd5b8035906020019184600183028401116401000000008311171561046357600080fd5b91908080601f016020809104026020016040519081016040528093929190818152602001838380828437600081840152601f19601f820116905080830192505050505050509192919290803590602001906401000000008111156104c657600080fd5b8201836020820111156104d857600080fd5b803590602001918460018302840111640100000000831117156104fa57600080fd5b91908080601f016020809104026020016040519081016040528093929190818152602001838380828437600081840152601f19601f8201169050808301925050505050505091929192908035906020019064010000000081111561055d57600080fd5b82018360208201111561056f57600080fd5b8035906020019184600183028401116401000000008311171561059157600080fd5b91908080601f016020809104026020016040519081016040528093929190818152602001838380828437600081840152601f19601f820116905080830192505050505050509192919290803590602001906401000000008111156105f457600080fd5b82018360208201111561060657600080fd5b8035906020019184600183028401116401000000008311171561062857600080fd5b91908080601f016020809104026020016040519081016040528093929190818152602001838380828437600081840152601f19601f8201169050808301925050505050505091929192908035906020019064010000000081111561068b57600080fd5b82018360208201111561069d57600080fd5b803590602001918460018302840111640100000000831117156106bf57600080fd5b91908080601f016020809104026020016040519081016040528093929190818152602001838380828437600081840152601f19601f820116905080830192505050505050509192919290505050610dc7565b005b61073f6004803603602081101561072957600080fd5b8101908080359060200190929190505050610f92565b005b61076d6004803603602081101561075757600080fd5b8101908080359060200190929190505050610fc3565b6040518080602001828103825283818151815260200191508051906020019080838360005b838110156107ad578082015181840152602081019050610792565b50505050905090810190601f1680156107da5780820380516001836020036101000a031916815260200191505b509250505060405180910390f35b6108ab600480360360408110156107fe57600080fd5b81019080803590602001909291908035906020019064010000000081111561082557600080fd5b82018360208201111561083757600080fd5b8035906020019184600183028401116401000000008311171561085957600080fd5b91908080601f016020809104026020016040519081016040528093929190818152602001838380828437600081840152601f19601f820116905080830192505050505050509192919290505050611083565b005b6108d9600480360360208110156108c357600080fd5b81019080803590602001909291905050506110ba565b6040518080602001828103825283818151815260200191508051906020019080838360005b838110156109195780820151818401526020810190506108fe565b50505050905090810190601f1680156109465780820380516001836020036101000a031916815260200191505b509250505060405180910390f35b6109806004803603602081101561096a57600080fd5b810190808035906020019092919050505061117a565b6040518080602001828103825283818151815260200191508051906020019080838360005b838110156109c05780820151818401526020810190506109a5565b50505050905090810190601f1680156109ed5780820380516001836020036101000a031916815260200191505b509250505060405180910390f35b610a2760048036036020811015610a1157600080fd5b810190808035906020019092919050505061123a565b6040518082815260200191505060405180910390f35b610a6960048036036020811015610a5357600080fd5b8101908080359060200190929190505050611262565b6040518080602001828103825283818151815260200191508051906020019080838360005b83811015610aa9578082015181840152602081019050610a8e565b50505050905090810190601f168015610ad65780820380516001836020036101000a031916815260200191505b509250505060405180910390f35b606060028281548110610af357fe5b90600052602060002090600702016003018054600181600116156101000203166002900480601f016020809104026020016040519081016040528092919081815260200182805460018160011615610100020316600290048015610b985780601f10610b6d57610100808354040283529160200191610b98565b820191906000526020600020905b815481529060010190602001808311610b7b57829003601f168201915b50505050509050919050565b606060028281548110610bb357fe5b90600052602060002090600702016004018054600181600116156101000203166002900480601f016020809104026020016040519081016040528092919081815260200182805460018160011615610100020316600290048015610c585780601f10610c2d57610100808354040283529160200191610c58565b820191906000526020600020905b815481529060010190602001808311610c3b57829003601f168201915b50505050509050919050565b8060028381548110610c7257fe5b90600052602060002090600702016005019080519060200190610c96929190611322565b505050565b606080600160008473ffffffffffffffffffffffffffffffffffffffff1673ffffffffffffffffffffffffffffffffffffffff16815260200190815260200160002054604051908082528060200260200182016040528015610d0c5781602001602082028038833980820191505090505b509050600080905060008090505b600280549050811015610dbc578473ffffffffffffffffffffffffffffffffffffffff1660008083815260200190815260200160002060009054906101000a900473ffffffffffffffffffffffffffffffffffffffff1673ffffffffffffffffffffffffffffffffffffffff161415610daf5780838381518110610d9a57fe5b60200260200101818152505081806001019250505b8080600101915050610d1a565b508192505050919050565b6000600160026040518060e001604052808a81526020018981526020018881526020018781526020018681526020018581526020016000815250908060018154018082558091505090600182039060005260206000209060070201600090919290919091506000820151816000019080519060200190610e489291906113a2565b506020820151816001019080519060200190610e659291906113a2565b506040820151816002019080519060200190610e829291906113a2565b506060820151816003019080519060200190610e9f9291906113a2565b506080820151816004019080519060200190610ebc9291906113a2565b5060a0820151816005019080519060200190610ed99291906113a2565b5060c0820151816006015550500390503360008083815260200190815260200160002060006101000a81548173ffffffffffffffffffffffffffffffffffffffff021916908373ffffffffffffffffffffffffffffffffffffffff160217905550600160003373ffffffffffffffffffffffffffffffffffffffff1673ffffffffffffffffffffffffffffffffffffffff1681526020019081526020016000206000815480929190600101919050555050505050505050565b60028181548110610f9f57fe5b90600052602060002090600702016006016000815480929190600101919050555050565b606060028281548110610fd257fe5b90600052602060002090600702016001018054600181600116156101000203166002900480601f0160208091040260200160405190810160405280929190818152602001828054600181600116156101000203166002900480156110775780601f1061104c57610100808354040283529160200191611077565b820191906000526020600020905b81548152906001019060200180831161105a57829003601f168201915b50505050509050919050565b806002838154811061109157fe5b906000526020600020906007020160000190805190602001906110b5929190611322565b505050565b6060600282815481106110c957fe5b90600052602060002090600702016000018054600181600116156101000203166002900480601f01602080910402602001604051908101604052809291908181526020018280546001816001161561010002031660029004801561116e5780601f106111435761010080835404028352916020019161116e565b820191906000526020600020905b81548152906001019060200180831161115157829003601f168201915b50505050509050919050565b60606002828154811061118957fe5b90600052602060002090600702016005018054600181600116156101000203166002900480601f01602080910402602001604051908101604052809291908181526020018280546001816001161561010002031660029004801561122e5780601f106112035761010080835404028352916020019161122e565b820191906000526020600020905b81548152906001019060200180831161121157829003601f168201915b50505050509050919050565b60006002828154811061124957fe5b9060005260206000209060070201600601549050919050565b60606002828154811061127157fe5b90600052602060002090600702016002018054600181600116156101000203166002900480601f0160208091040260200160405190810160405280929190818152602001828054600181600116156101000203166002900480156113165780601f106112eb57610100808354040283529160200191611316565b820191906000526020600020905b8154815290600101906020018083116112f957829003601f168201915b50505050509050919050565b828054600181600116156101000203166002900490600052602060002090601f016020900481019282601f1061136357805160ff1916838001178555611391565b82800160010185558215611391579182015b82811115611390578251825591602001919060010190611375565b5b50905061139e9190611422565b5090565b828054600181600116156101000203166002900490600052602060002090601f016020900481019282601f106113e357805160ff1916838001178555611411565b82800160010185558215611411579182015b828111156114105782518255916020019190600101906113f5565b5b50905061141e9190611422565b5090565b61144491905b80821115611440576000816000905550600101611428565b5090565b9056fea265627a7a723158207d04b683c02cc371fefa58c6123e2f1fa89ab62f5d4cf3b08231d783a89a716564736f6c63430005100032",
  "source": "pragma solidity >=0.4.25 <0.7.0;\n\ncontract UploadMusic {\n\n\tstruct Music{\n\t\tstring title;\n\t\tstring artist;\n\t\tstring genre;\n\t\tstring publishDate;\n\t\tstring musicURL;\n\t\tstring albumArt;\n\t\tuint like;\n\t}\n\n\tmapping (uint => address) idToOwner;\n\tmapping (address => uint) musicCount;\n\tMusic[] musicArray;\n\n\n\tfunction uploadMusic(string memory _title, string memory _artist, string memory _genre, string memory _publishDate, string memory _musicURL, string memory _albumArt) public {\n    uint id = musicArray.push(Music(_title, _artist, _genre, _publishDate, _musicURL, _albumArt, 0)) - 1;\n\t\tidToOwner[id] = msg.sender;\n    musicCount[msg.sender]++;\n\t}\n\n\tfunction getMusicByOwner(address _owner) external view returns(uint[] memory) {\n\t\tuint[] memory result = new uint[](musicCount[_owner]);\n\t\tuint counter = 0;\n\t\tfor (uint i = 0; i < musicArray.length; i++) {\n\t\t\tif (idToOwner[i] == _owner) {\n\t\t\t\tresult[counter] = i;\n\t\t\t\tcounter++;\n\t\t\t}\n\t\t}\n\t\treturn result;\n\t}\n\t//mapping\n\t// function musicOwner(uint _id) public view returns(address) {\n\t// \treturn idToOwner[_id];\n\t// }\n\t// function musicCount(address _address) public view returns(uint) {\n\t// \treturn musicCount[_address];\n\t// }\n\n\t//get\n\tfunction getTitle(uint _id) public view returns(string memory) {\n\t\treturn musicArray[_id].title;\n\t}\n\tfunction getArtist(uint _id) public view returns(string memory) {\n\t\treturn musicArray[_id].artist;\n\t}\n\tfunction getGenre(uint _id) public view returns(string memory) {\n\t\treturn musicArray[_id].genre;\n\t}\n\tfunction getPublishDate(uint _id) public view returns(string memory) {\n\t\treturn musicArray[_id].publishDate;\n\t}\n\tfunction getMusicURL(uint _id) public view returns(string memory) {\n\t\treturn musicArray[_id].musicURL;\n\t}\n\tfunction getAlbumArt(uint _id) public view returns(string memory) {\n\t\treturn musicArray[_id].albumArt;\n\t}\n\t//change\n\tfunction changeTitle (uint _id, string memory _newTitle) public {\n\t\tmusicArray[_id].title = _newTitle;\n\t}\n\tfunction changeAlbumArt (uint _id, string memory _newAlbumArt) public {\n\t\tmusicArray[_id].albumArt = _newAlbumArt;\n\t}\n\t//function changeDescription (uint _id, string memory _newDescription) public {\n\t//\tmusicArray[_id].description = _newDescription;\n\t//}\n\t//like\n\tfunction thumbsUp (uint _id) public {\n\t\tmusicArray[_id].like ++;\n\t}\n\tfunction totalLike(uint _id) public view returns(uint) {\n\t\treturn musicArray[_id].like;\n\t}\n}\n",
  "sourcePath": "/home/vic/Documents/Whisper/contracts/UploadMusic.sol",
  "compiler": {
    "name": "solc",
    "version": "0.5.16+commit.9c3226ce.Emscripten.clang"
  },
  "schemaVersion": "3.2.0",
  "updatedAt": "2020-06-21T19:36:58.147Z",
  "networkType": "ethereum",
  "devdoc": {
    "methods": {}
  },
  "userdoc": {
    "methods": {}
  }
}